:100000000C9463000C948B000C948B000C948B006C
:100010000C948B000C948B000C948B000C948B0034
:100020000C948B000C948B000C948B000C948B0024
:100030000C948B000C948B000C948B000C948B0014
:100040000C94D3050C948B000C94D3040C94AD0445
:100050000C948B000C948B000C948B000C948B00F4
:100060000C948B000C948B000000000024002700EF
:100070002A000000000023002600290004040404D4
:100080000404040402020202020203030303030342
:10009000010204081020408001020408102001021F
:1000A0000408102000000000250028002B0000009C
:1000B0000008000201000003040700000000000027
:1000C0000000F20D8F0E11241FBECFEFD8E0DEBF6F
:1000D000CDBF25E0A8E5B4E001C01D92A839B20764
:1000E000E1F714E0A0E0B1E0E4EEF2E202C0059036
:1000F0000D92A835B107D9F710E0C2E6D0E004C0F0
:100100002197FE010E943B0FC136D107C9F70E941B
:10011000AB060C9465110C9400000E9438110F93EB
:100120001F93CF93DF93EC0188819981009729F089
:100130002A813B812617370788F48B016F5F7F4F39
:100140000E946E10009761F0998388831B830A8355
:100150002C813D81232B11F4FC01108281E001C030
:1001600080E0DF91CF911F910F910895EAE7F4E0CD
:10017000A089B18982E08C93A485B5851C92A6855F
:10018000B78580E18C93108EA489B58986E08C9325
:10019000A289B3898C9180618C93A289B3898C9157
:1001A00088608C93A289B3898C9180688C93028833
:1001B000F389E02D80818F7D80830895EF92FF92F7
:1001C0000F931F93CF93DF931F92CDB7DEB7082F06
:1001D000162F8FE5E82E85E0F82E60E0F701808984
:1001E00049830E94050585E00E941D06802F0E941C
:1001F0001D06812F0E941D064981842F0E941D0625
:1002000061E0F70180890F90DF91CF911F910F91ED
:10021000FF90EF900C940505CF93DF93D82F482FD4
:1002200060EE8FE00E94DE0060E080916F050E942A
:10023000050583E00E941D068FE00E941D0680E0F8
:100240000E941D06C82F61E080916F050E94050580
:10025000C07E81E0CD1301C080E0DF91CF91089591
:100260000F931F93CF93DF93082F162FCFE5D5E081
:1002700060E088890E94050582E00E941D06802FAB
:100280000E941D06812F0E941D0661E08889DF9172
:10029000CF911F910F910C9405051F93CF93DF937E
:1002A00000D000D0CDB7DEB7182F613031F41C82FA
:1002B0001B8288E08A83198204C019821A821C82F8
:1002C0001B8260E080916F050E94050582E00E941C
:1002D0001D06812F0E941D0689810E941D068A81AC
:1002E0000E941D068B810E941D068C810E941D06A6
:1002F00061E080916F050F900F900F900F90DF914C
:10030000CF911F910C9405050F931F930E94C70571
:100310006093820470938304809384049093850493
:10032000E0917A04F0917B040680F781E02D8AE762
:1003300094E0099597FF1FC00E94C70500918204B1
:10034000109183042091840430918504DC01CB0159
:10035000801B910BA20BB30B00917E0410917F04C4
:10036000209180043091810480179107A207B30780
:10037000B8F28FEF9FEF1F910F9108954091820582
:100380005091830541155105D1F080917E059091E2
:100390007F05415051095093830540938205BC016C
:1003A0006F5F7F4F0E945611E0917E05F0917F05AF
:1003B0008091820590918305E80FF91F10820895BE
:1003C000CF93DF93E4E8F5E044815581608171814A
:1003D0008AE794E00E946B06EC016FE271E08AE725
:1003E00094E00E9496068C0F9D1FDF91CF91089597
:1003F000FC01248135816217730720F4808191818B
:10040000009729F410928A058AE895E00895860FEE
:10041000971F0895FC0124813581232B31F421E0BD
:1004200061157105A1F0FB0108C0FC01808191817B
:100430006115710531F421E0FC018081882339F0D8
:1004400005C00E94461121E0892B09F020E0822F8F
:100450000895EF92FF920F931F93CF93DF93FC01C8
:10046000248135816115710511F480E019C04115B1
:100470005105A9F07B01EC018A01020F131FB8019D
:100480000E948F00882389F3288139818C819D8186
:10049000B701820F931F0E944F111D830C8381E0CF
:1004A000DF91CF911F910F91FF90EF900895CF931F
:1004B000DF93EC0188819981009711F00E94D60F9B
:1004C000198218821D821C821B821A82DF91CF91B1
:1004D0000895EF92FF920F931F93CF93DF93EC0158
:1004E0007B018A01BA010E948F00811104C0CE01F4
:1004F0000E94570207C01D830C83B7018881998130
:100500000E944F11CE01DF91CF911F910F91FF906B
:10051000EF900895CF93DF93EC016115710559F0C9
:10052000FB0101900020E9F73197AF01461B570B03
:100530000E94690202C00E945702CE01DF91CF9152
:100540000895CF93DF93EC01FB018617970761F0C5
:10055000608171816115710529F0448155810E9486
:10056000690202C00E945702CE01DF91CF91089527
:10057000FC01808191810C94D60FFC0111821082C4
:1005800013821282158214826115710551F0FB01EC
:1005900001900020E9F73197AF01461B570B0C94EF
:1005A00069020895EF92FF920F931F93CF93DF9309
:1005B0008C017B0161E371E00E94BD02809188059E
:1005C000909189050097D9F0E7018E159F0508F4F1
:1005D000EC01E0918405F0918505EC0FFD1FF080A2
:1005E00010826091840570918505C8010E948A027D
:1005F0008091840590918505C80FD91FF882C801A4
:10060000DF91CF911F910F91FF90EF9008954F923E
:100610005F926F927F92EF92FF920F931F93CF930F
:10062000DF93CDB7DEB7A1970FB6F894DEBF0FBE4C
:10063000CDBF7C01FA01CB0119A2223008F42AE0D7
:100640008E010F5D1F4F422E512C612C712CBF016A
:10065000A30192010E94E20EF901CA0101501109A1
:100660006A3014F4605D01C0695CD8016C93232B7F
:10067000242B252B61F7B801C7010E949606A1968D
:100680000FB6F894DEBF0FBECDBFDF91CF911F91A3
:100690000F91FF90EF907F906F905F904F90089533
:1006A000CF93DF93482F50E060E070E02AE08AE7C4
:1006B00094E00E940703EC016FE271E08AE794E0A6
:1006C0000E9496068C0F9D1FDF91CF910895CF92C7
:1006D000DF92EF92FF92CF93DF936C01990FEE08B8
:1006E000FF08F7FE1CC0E0917A04F0917B040190B2
:1006F000F081E02D6DE28AE794E00995EC01442752
:100700005527BA014C195D096E097F092AE08AE76D
:1007100094E00E9407037C01EC0EFD1E08C02AE055
:10072000B701A6018AE794E00E9407037C016FE20B
:1007300071E08AE794E00E9496068E0D9F1DDF917E
:10074000CF91FF90EF90DF90CF9008950F931F937C
:10075000CF93DF93EC010E9496068C016FE271E06B
:10076000CE010E949606800F911FDF91CF911F91BD
:100770000F9108950C949606FC01918D828D981727
:1007800061F0828DDF01A80FB11D5D968C91928D75
:100790009F5F9F73928F90E008958FEF9FEF089572
:1007A000FC01918D828D981731F0828DE80FF11D3B
:1007B000858D90E008958FEF9FEF0895FC01918D56
:1007C000228D892F90E0805C9F4F821B91098F734F
:1007D000992708958AE794E00E94DE0321E0892B9F
:1007E00009F420E0822F0895FC01848DDF01A80F19
:1007F000B11DA35ABF4F2C91848D90E001968F7349
:100800009927848FA689B7892C93A089B1898C9167
:1008100080648C93938D848D981306C00288F3892D
:10082000E02D80818F7D80830895EF92FF920F935A
:100830001F93CF93DF93EC0181E0888F9B8D8C8D8C
:10084000981305C0E889F989808185FD24C0F62EBA
:100850000B8D10E00F5F1F4F0F731127E02E8C8D53
:10086000E8120CC00FB607FCFACFE889F98980813D
:1008700085FFF5CFCE010E94F403F1CF8B8DFE01F1
:10088000E80FF11DE35AFF4FF0820B8FEA89FB89D5
:100890008081806207C0EE89FF896083E889F989D9
:1008A00080818064808381E090E0DF91CF911F910F
:1008B0000F91FF90EF900895CF93DF93EC01888D17
:1008C0008823C9F0EA89FB89808185FD05C0A88954
:1008D000B9898C9186FD0FC00FB607FCF5CF8081DA
:1008E00085FFF2CFA889B9898C9185FFEDCFCE0124
:1008F0000E94F403E7CFDF91CF91089580E090E06C
:10090000892B29F00E94EA0381110C9400000895BC
:100910003FB7F8948091900590919105A091920530
:10092000B091930526B5A89B05C02F3F19F00196FD
:10093000A11DB11D3FBFBA2FA92F982F8827820F65
:10094000911DA11DB11DBC01CD0142E0660F771FB5
:10095000881F991F4A95D1F708951F920F920FB6DD
:100960000F9211242F933F934F935F936F937F9335
:100970008F939F93AF93BF93EF93FF938AE794E096
:100980000E94F403FF91EF91BF91AF919F918F91DE
:100990007F916F915F914F913F912F910F900FBE7B
:1009A0000F901F9018951F920F920FB60F9211245F
:1009B0002F938F939F93EF93FF93E0918A04F0918D
:1009C0008B048081E0919004F091910482FD12C02B
:1009D0009081809193048F5F8F732091940482178C
:1009E00051F0E0919304F0E0E658FB4F958F80932F
:1009F000930401C08081FF91EF919F918F912F917E
:100A00000F900FBE0F901F90189590E0FC01E255DB
:100A1000FF4F3491FC01E057FF4F2491FC01E45853
:100A2000FF4FE491EE2309F43BC0332339F1333017
:100A300091F038F43130A9F0323001F584B58F7D72
:100A400012C0373091F03830A1F03430B9F48091D1
:100A500080008F7D03C0809180008F77809380001D
:100A60000DC084B58F7784BD09C08091B0008F77A9
:100A700003C08091B0008F7D8093B000F0E0EE0F56
:100A8000FF1FEC55FF4FA591B4918FB7F894EC91EF
:100A9000611103C020952E2301C02E2B2C938FBFF4
:100AA0000895CF93DF9390E0FC01E057FF4F24912E
:100AB000FC01E458FF4F8491882361F190E0880F96
:100AC000991FFC01E859FF4FC591D491FC01EC55E9
:100AD000FF4FA591B491611109C09FB7F894888127
:100AE000209582238883EC912E230BC0623061F421
:100AF0009FB7F8943881822F809583238883EC9167
:100B00002E2B2C939FBF06C08FB7F894E8812E2B15
:100B100028838FBFDF91CF9108958F929F92AF92DC
:100B2000BF92CF92DF92EF92FF926B017C010E9405
:100B300088044B015C01C114D104E104F104F1F01B
:100B40000E948804DC01CB0188199909AA09BB0914
:100B5000883E9340A105B10570F321E0C21AD10887
:100B6000E108F10888EE880E83E0981EA11CB11CF4
:100B7000C114D104E104F10419F7DDCFFF90EF9027
:100B8000DF90CF90BF90AF909F908F9008952FB738
:100B9000F89460918C0570918D0580918E059091EF
:100BA0008F052FBF08951F920F920FB60F92112439
:100BB0002F933F938F939F93AF93BF9380918C0517
:100BC00090918D05A0918E05B0918F0530918B0588
:100BD00023E0230F2D3720F40196A11DB11D05C080
:100BE00026E8230F0296A11DB11D20938B0580934B
:100BF0008C0590938D05A0938E05B0938F05809101
:100C0000900590919105A0919205B0919305019660
:100C1000A11DB11D8093900590939105A09392051D
:100C2000B0939305BF91AF919F918F913F912F9179
:100C30000F900FBE0F901F9018958EBD00000DB441
:100C400007FEFDCF8EB508950C94D40E0C94CC0EF7
:100C50001F93CF93DF93162FD42FC22F882311F029
:100C600060E001C061E085E00E940505112311F0FC
:100C700060E001C061E086E00E940505DD2311F01F
:100C800060E001C061E087E00E940505CC2311F01F
:100C900060E001C061E088E0DF91CF911F910C948A
:100CA0000505CF92DF92EF92FF9297FD01966C01BE
:100CB000D594C7940D2C000CEE08FF08C701B601AF
:100CC0000E948D05C701B6010E948D05FF90EF902F
:100CD000DF90CF900895CF92DF92EF92FF920F9323
:100CE0001F93CF93DF936C017A018B01C0E0D0E0BA
:100CF000CE15DF0589F0D8016D918D01D601ED91FA
:100D0000FC910190F081E02DC6010995892B11F429
:100D10007E0102C02196ECCFC701DF91CF911F91D8
:100D20000F91FF90EF90DF90CF90089561157105BE
:100D300079F0FB0101900020E9F73197AF01461BE4
:100D4000570BDC01ED91FC910280F381E02D0994B9
:100D500080E090E00895CF93DF93CDB7DEB7609742
:100D60000FB6F894DEBF0FBECDBF789484B5826015
:100D700084BD84B5816084BD85B5826085BD85B53F
:100D8000816085BD80916E00816080936E001092BD
:100D90008100809181008260809381008091810038
:100DA00081608093810080918000816080938000C9
:100DB0008091B10084608093B1008091B000816027
:100DC0008093B00080917A00846080937A00809153
:100DD0007A00826080937A0080917A0081608093AB
:100DE0007A0080917A00806880937A001092C10026
:100DF00010925B0510925C0510925D0510925E05E5
:100E00001092190510921A0510921B0510921C05DC
:100E100068EB7BE080E090E00E948D058AE794E03B
:100E200090935A05809359050E94B6000E94C70509
:100E30006093190570931A0580931B0590931C0508
:100E400060E271E08091590590915A050E94BA03C1
:100E50006AE070E080E090E00E948D0581E0809380
:100E60002D0560E080E00E9451050E94B6001FB78A
:100E7000F89480915804811127C0E6E8F0E084914D
:100E8000EAE9F0E09491E82FF0E0EE0FFF1FE85957
:100E9000FF4FA591B491EC91E92321F461E08AE040
:100EA0000E94050561E08AE00E9451058CB58061D1
:100EB0008CBD8CB580648CBD61E08DE00E945105D5
:100EC00061E08BE00E945105809158048F5F809310
:100ED00058041FBF60E080916F050E94050580ECFB
:100EE0000E941D0661E080916F050E9405056AE081
:100EF00070E080E090E00E948D0580E80E940C0187
:100F0000811157C060E08AE20E94300160EF89E2FF
:100F10000E94300166E888E20E94300161E080E2D0
:100F20000E944D0161E084E20E944D0161E080E099
:100F30000E944D0160E084E00E944D0161E088E084
:100F40000E944D0160E080E10E944D0161E084E17A
:100F50000E944D0160E088E10E944D0110E360E0D5
:100F6000812F0E94300160E080E1810F0E943001FA
:100F700060E080E2810F0E9430011F5F1E3379F72D
:100F800060E080E60E94300160E080E70E9430016E
:100F900063E08BE20E94300144E064E680E60E9458
:100FA000DE0040E060E680E70E94DE0080E00E9414
:100FB0000C0161E08DE00E94510560E089E00E9433
:100FC000510581E08093590410915904153070F453
:100FD000E12FF0E0EE0FFF1FEA5FFE4F61E080813E
:100FE0000E9451051F5F10935904EECF8BE090E0F3
:100FF0000E94260618EEE12E13E0F12E282E2E9CDC
:10100000C0012F9C900D112490935C0480935B048D
:1010100089E090E00E942606182F813021F081E0BF
:101020008093590428C021E041E061E081E00E9402
:1010300028068AE090E00E942606382E3E9CC001D9
:101040003F9C900D11240E94510610935904109159
:101050005904153020F7E12FF0E0EE0FFF1FEA5F93
:10106000FE4F61E080810E94050588EE93E00E94BA
:1010700051061F5FEACFF0905904F8E04F2E4F144D
:1010800088F00F2D10E0C8010E942606000F111FE6
:10109000F801E25AFB4F90E091838083F394F09241
:1010A0005904E9CF44EF842E99249394A12CB12CB8
:1010B00050E4D52E8E010F5F1F4F68EEE62E63E0E1
:1010C000F62E74E6C72EEEEF7E2E66246A940E94FA
:1010D000C705672B682B692B41F40E94C705623056
:1010E00071058105910508F404C10E94C70560934C
:1010F0007604709377048093780490937904209118
:101100007204309173044091740450917504621715
:1011100073078407950740F4609372047093730417
:101120008093740490937504209172043091730439
:1011300040917404509175041B012C01221A330A4A
:10114000440A550AA20191012A3F31054105510582
:1011500008F4CFC060937204709373048093740496
:10116000909375048092250590922605A0922705FC
:10117000B09228051092290510922A0510922B058D
:1011800010922C0580911D0590911E05A0911F05C0
:10119000B09120058093210590932205A09323050B
:1011A000B09324050E94C70560931D0570931E052A
:1011B00080931F05909320050E94C7056093190531
:1011C00070931A0580931B0590931C050E94C70518
:1011D0001B012C0162E371E08091590590915A0541
:1011E0000E94BA032AE041E050E060E070E08091A4
:1011F000590590915A050E94070369E371E08091B7
:10120000590590915A050E94BA032AE0B201A10142
:101210008091590590915A050E9407036BE371E094
:101220008091590590915A050E94BA0380911D053D
:1012300090911E05A0911F05B0912005B201A1015A
:10124000481B590B6A0B7B0B2AE080915905909142
:101250005A050E9407036BE371E080915905909154
:101260005A050E94BA0340911D0550911E056091D8
:101270001F05709120058091210590912205A09174
:101280002305B0912405481B590B6A0B7B0B2AE000
:101290008091590590915A050E9407036DE371E012
:1012A0008091590590915A050E94BA030E94C70582
:1012B000AB01BC012AE08091590590915A050E942A
:1012C00007036FE371E08091590590915A050E94E0
:1012D000A60365E070E080E090E00E948D050E942A
:1012E000C70560931D0570931E0580931F0590939D
:1012F0002005D0927C0080917A00806480937A00EF
:1013000080917A0086FDFCCF409078008091790032
:10131000512C582A509271044092700466E471E096
:1013200084E895E00E948A024AE0B801C2010E9466
:10133000970EF80101900020E9F73197AF01401BAB
:10134000510BB80184E895E00E9429020E94E00157
:1013500040907004509071048091600490916104F9
:10136000481659064CF080915D04811105C020E0BB
:1013700040E060E00E94280680916204909163043E
:10138000481659068CF080916404909165044816C3
:10139000590654F480915D04811106C020E040E0BC
:1013A00060E081E00E9428068091660490916704C5
:1013B000481659068CF0809168049091690448168B
:1013C000590654F480915D04811106C020E040E08C
:1013D00061E081E00E94280680916A0490916B048C
:1013E000481659068CF080916C0490916D04481653
:1013F000590654F480915D04811106C020E041E05B
:1014000061E081E00E94280680916E0490916F0453
:101410004816590654F480915D04811106C021E0FC
:1014200041E061E081E00E9428068AE794E00E94A2
:10143000DE03181619060CF4B3C080918205909152
:101440008305892B09F0ACC0A2C081E080935A04C7
:1014500065E070E0C8010E94D20269E072E0C80154
:101460000E940A02582EC8010E94B8025110F1C20F
:1014700068E070E0C8010E94D2026CE172E0C8012D
:101480000E940A02582EC8010E94B8025110FEC2E2
:1014900069E070E0C8010E94D20266E372E0C80110
:1014A0000E940A02582EC8010E94B802511037C388
:1014B00064E070E0C8010E94D20269E174E0C801F2
:1014C0000E940A02582EC8010E94B8025520C9F194
:1014D00062E572E08AE794E00E94A60369E772E0A1
:1014E0008AE794E00E94A60369EA72E08AE794E042
:1014F0000E94A6036FEE72E08AE794E00E94A603C2
:1015000061E173E08AE794E00E94A6036AE273E077
:101510008AE794E00E94A6036FE473E08AE794E010
:101520000E94A60365E973E08AE794E00E94A6039F
:1015300067ED73E08AE794E00E94A60381E0809360
:101540005A0465E070E0C8010E94D2026CEE73E0BC
:10155000C8010E940A02582EC8010E94B8025520F4
:1015600031F0E0E0F0E0099581E080935A04809149
:101570005A0481110CC062EF73E08AE794E00E9484
:10158000A6036AE074E08AE794E00E94A6038091D3
:101590005B0490915C040E9451060E947E0497CDEA
:1015A00061E371E0CE0109960E94BD020E948401B0
:1015B00097FD0AC089831A8241E050E0B801CE014C
:1015C00009960E942902F2CF1A8219821C821B827C
:1015D0001E821D826EE775E0C8010E94A1028AE0AA
:1015E0008F87188A41E050E0BE01615F7F4FC801DC
:1015F0000E942902811103C0C8010E9457024D8533
:101600005E8569857A85C8010E942902811103C01F
:10161000C8010E945702B8018EE795E00E94A1021E
:10162000C8010E94B802CE0109960E94B80261E387
:1016300071E084E895E00E948A0260E070E08EE745
:1016400095E00E94F801FC0180818A3099F1809137
:10165000820590918305892B69F160E070E08EE747
:1016600095E00E94F801FC0150801A8219821C82C8
:101670001B821E821D8264E875E0C8010E94A102DF
:1016800059861A8641E050E0BE01675F7F4FC8016E
:101690000E942902811103C0C8010E945702B801AB
:1016A00084E895E00E94A102C8010E94B8020E944D
:1016B000BE01C3CF60E070E08EE795E00E94F801C4
:1016C000FC0180818A3011F40E94BE0160E571E066
:1016D0008AE794E00E94BA030E94E00110925A0443
:1016E00062E070E0C8010E94D2026FE571E0C801BB
:1016F0000E940A02582EC8010E94B802552089F0A3
:1017000060925D0468E571E08AE794E00E94A603B8
:1017100021E041E061E081E00E94280681E08093C1
:101720005A0463E070E0C8010E94D20269E671E0E9
:10173000C8010E940A02582EC8010E94B802552012
:1017400089F070925D0462E671E08AE794E00E949D
:10175000A60320E040E060E080E00E94280681E0EF
:1017600080935A0462E070E0C8010E94D20264E7EC
:1017700071E0C8010E940A02582EC8010E94B802F6
:10178000552059F010925D046DE671E08AE794E00F
:101790000E94A60381E080935A0466E070E0C801CD
:1017A0000E94D20267E771E0C8010E940A02582E27
:1017B000C8010E94B802552009F442C066E070E0FA
:1017C00084E895E00E94F801FC01808190ED980F7B
:1017D00090935D048153843058F56EE771E08AE799
:1017E00094E00E94BA0380915D040E94500381E05E
:1017F0008093590450905904F4E0F515A8F0209115
:101800005D04852D90E0880F991FFC01EA5FFE4F73
:10181000521202C060E001C061E080810E940505B3
:10182000539450925904E6CF81E080935A0408C043
:1018300010925D0466E871E08AE794E00E94A603D6
:1018400063E070E0C8010E94D2026CE971E0C80157
:101850000E940A02582EC8010E94B8025520B9F110
:1018600064E070E084E895E00E94F801FC0180816A
:1018700080538C9D502C112465E070E084E895E045
:101880000E94F801FC018081880F8056482E440C8C
:10189000440C480E66E070E084E895E00E94F80190
:1018A000FC0180818053580E540C63E070E084E8A2
:1018B00095E00E94F801FC018081082E000C990B34
:1018C000652DC0970E94240681E080935A0465E04C
:1018D00070E0C8010E94D20260EA71E0C8010E9473
:1018E0000A02582EC8010E94B802552009F465C0AA
:1018F00066EA71E08AE794E00E94A60386E990E038
:101900000E94510681E080935904809159048930E6
:1019100028F56AE471E08AE794E00E94BA034091F6
:10192000590450E060E070E02AE08AE794E00E9409
:10193000070367E371E08AE794E00E94BA038091AD
:10194000590490E00E9426060E94500386E990E028
:101950000E945106809159048F5FD5CF60EC71E0F1
:101960008AE794E00E94BA0389E090E00E9426068C
:101970000E94500386E990E00E94510663ED71E0F9
:101980008AE794E00E94BA038AE090E00E9426066B
:101990000E94500386E990E00E94510660EE71E0DB
:1019A0008AE794E00E94BA038BE090E00E9426064A
:1019B0000E94500381E080935A0463E070E0C80104
:1019C0000E94D2026EEE71E0C8010E940A02582EF7
:1019D000C8010E94B802552009F43ACD62EF71E0C7
:1019E0008AE794E00E94A60386E990E00E945106EF
:1019F00081E08093590480915904893008F025CD05
:101A00006AE471E08AE794E00E94BA0340915904C5
:101A100050E060E070E02AE08AE794E00E9407036B
:101A200069E172E08AE794E00E94BA03E091590408
:101A3000F0E0EE0FFF1FE25AFB4F808191810E9480
:101A4000670386E990E00E945106809159048F5FF8
:101A5000D0CF89E090E00E942606882311F060E054
:101A600001C061E089E090E00E9424066FE072E02E
:101A70008AE794E00E94BA0389E090E00E9426067B
:101A80000E94500381E080935A04F2CC68E070E039
:101A900084E895E00E94F801FC018081803361F4C4
:101AA00065E272E08AE794E00E94BA038AE090E07F
:101AB0000E9426060E94500368E070E084E895E0EA
:101AC0000E94F801FC01808181330CF47DC068E044
:101AD00070E084E895E00E94F801FC0180818A337F
:101AE0000CF072C068E070E084E895E00E94F801B4
:101AF000FC01608160538AE090E00E94240665E268
:101B000072E08AE794E00E94BA038AE090E00E94C3
:101B100026060E94500381E080935A04B9CC69E004
:101B200070E084E895E00E94F801FC018081803338
:101B300061F460E472E08AE794E00E94BA03809165
:101B40005B0490915C040E94670369E070E084E8A4
:101B500095E00E94F801FC0180818133E4F169E0A5
:101B600070E084E895E00E94F801FC0180818A33EE
:101B700094F569E070E084E895E00E94F801FC01CA
:101B8000608160538BE090E00E9424068BE090E03F
:101B90000E942606F82FFE9DC001FF9D900D112486
:101BA00090935C0480935B0460E472E08AE794E0C5
:101BB0000E94BA038BE090E00E9426060E94500328
:101BC00081E080935A0474CC6EE174E08AE794E07B
:101BD0000E94A603A0CF6CE374E08AE794E00E9421
:101BE000A603EECF10927D0410927C0488EE93E061
:101BF000A0E0B0E080937E0490937F04A0938004E3
:101C0000B093810484E191E090937B0480937A0403
:101C100085EC90E0909387048093860484EC90E0B8
:101C2000909389048093880480EC90E090938B04D7
:101C300080938A0481EC90E090938D0480938C04CF
:101C400082EC90E090938F0480938E0486EC90E079
:101C500090939104809390041092930410929404B2
:101C6000109295041092960410921D0510921E0574
:101C700010921F0510922005109221051092220546
:101C80001092230510922405109225051092260526
:101C900010922705109228051092290510922A0506
:101CA00010922B0510922C0561E371E084E895E019
:101CB0000E94BD0261E371E08EE795E00E94BD02E3
:101CC00060E084E00E945105E4E9F0E0E491E093F3
:101CD0007005E0E8F0E0E491F0E0EE0FFF1FEE5851
:101CE000FF4F8591949190937205809371051092A6
:101CF0007B0510927D0510927C05EBE7F5E01292D2
:101D000085E0E337F807D9F78AE080936F0561E053
:101D10000E94510561E080916F050C9405058EE7E6
:101D200095E00E94B80284E895E00C94B802BB27C5
:101D30004A3031F4992322F4BDE2909581959F4F6A
:101D40000C94A30EBB27FB015527AA27880F991FC8
:101D5000AA1FA41710F0A41B83955051B9F7A05DDA
:101D6000AA3308F0A95DA193009779F7B111B19357
:101D70001192CB010C94BC0EDC01FC01672F719118
:101D80007723E1F7329704C07C916D937083629161
:101D9000AE17BF07C8F30895F999FECF92BD81BD74
:101DA000F89A992780B50895262FF999FECF1FBA82
:101DB00092BD81BD20BD0FB6F894FA9AF99A0FBE74
:101DC00001960895A1E21A2EAA1BBB1BFD010DC0AE
:101DD000AA1FBB1FEE1FFF1FA217B307E407F507DB
:101DE00020F0A21BB30BE40BF50B661F771F881FB7
:101DF000991F1A9469F760957095809590959B014D
:101E0000AC01BD01CF0108952F923F924F925F9296
:101E10006F927F928F929F92AF92BF92CF92DF92FA
:101E2000EF92FF920F931F93CF93DF93CDB7DEB75F
:101E3000CA1BDB0B0FB6F894DEBF0FBECDBF0994F3
:101E40002A88398848885F846E847D848C849B844A
:101E5000AA84B984C884DF80EE80FD800C811B8158
:101E6000AA81B981CE0FD11D0FB6F894DEBF0FBE87
:101E7000CDBFED010895EE0FFF1F0590F491E02D09
:101E80000994CF93DF938230910510F482E090E0C3
:101E9000E0919605F091970520E030E0C0E0D0E0B9
:101EA000309711F14081518148175907C0F0481708
:101EB000590761F482819381209719F09B838A836B
:101EC0002BC0909397058093960526C02115310568
:101ED00019F04217530718F49A01BE01DF01EF0110
:101EE0000280F381E02DDCCF2115310509F1281B9B
:101EF000390B2430310590F412968D919C911397F3
:101F00006115710521F0FB019383828304C09093D6
:101F1000970580939605FD01329644C0FD01E20FBE
:101F2000F31F81939193225031092D933C933AC032
:101F30002091940530919505232B41F420910201C5
:101F40003091030130939505209394052091000171
:101F5000309101012115310541F42DB73EB7409173
:101F6000040150910501241B350BE0919405F0917B
:101F70009505E217F307A0F42E1B3F0B281739072E
:101F800078F0AC014E5F5F4F2417350748F04E0FD5
:101F90005F1F50939505409394058193919302C0E0
:101FA000E0E0F0E0CF01DF91CF9108950F931F9310
:101FB000CF93DF93009709F48CC0FC013297138212
:101FC000128200919605109197050115110581F473
:101FD00020813181820F931F2091940530919505C6
:101FE0002817390779F5F0939505E093940571C0AA
:101FF000D80140E050E0AE17BF0750F412962D9183
:102000003C911397AD012115310509F1D901F3CFA9
:102010009D01DA013383228360817181860F971FCE
:102020008217930769F4EC0128813981260F371F45
:102030002E5F3F4F318320838A819B8193838283EC
:10204000452B29F4F0939705E093960542C013962B
:10205000FC93EE931297ED01499159919E01240F43
:10206000351FE217F30771F480819181840F951F6A
:10207000029611969C938E938281938113969C93E2
:102080008E931297E0E0F0E0D80112968D919C912A
:102090001397009719F0F8018C01F6CF8D919C9160
:1020A00098012E5F3F4F820F931F2091940530912E
:1020B00095052817390769F4309729F41092970588
:1020C0001092960502C01382128210939505009318
:1020D0009405DF91CF911F910F910895A0E0B0E09A
:1020E000E4E7F0E10C94080FEC01009721F4CB0138
:1020F0000E94410FB8C0FC01E60FF71F9C0122505F
:102100003109E217F30708F4ACC0D9010D911C9115
:10211000119706171707B0F00530110508F49FC096
:10212000C80104978617970708F499C0025011094F
:10213000061B170B019311936D937C93CF010E94A3
:10214000D60F8DC05B01A01AB10A4C01800E911E02
:10215000A0919605B091970540E050E0E12CF12C5C
:10216000109709F44AC0A815B905D1F56D907C9077
:102170001197630182E0C80ED11CCA14DB0480F100
:10218000A3014A195B096A0182E0C80ED11C1296AC
:10219000BC9012971396AC91B5E0CB16D10440F0E9
:1021A000B282A38351834083D9016D937C930AC08B
:1021B0000E5F1F4FC301800F911FF9019183808330
:1021C000EB2DFA2FE114F10431F0D7011396FC93B3
:1021D000EE93129744C0F0939705E09396053FC0A5
:1021E0008D919C9111974817590708F4AC017D0116
:1021F00012960D90BC91A02DB3CF80919405909133
:10220000950588159905E1F446175707C8F480919C
:10221000000190910101009741F48DB79EB7409164
:10222000040150910501841B950BE817F907C8F4C8
:10223000F0939505E0939405F901718360830FC0D5
:10224000CB010E94410F7C01009759F0A801BE010B
:102250000E943D11CE010E94D60FC70104C0CE01DD
:1022600002C080E090E0CDB7DEB7EEE00C94240F22
:1022700081E090E0F8940C946511FB01DC0102C050
:1022800001900D9241505040D8F70895FB01DC01B8
:102290008D91019080190110D9F3990B0895FB01DC
:1022A000DC0101900D920020E1F70895FB01DC01B3
:1022B0004150504048F001900D920020C9F701C0F4
:1022C0001D9241505040E0F7089510E0C2E6D0E082
:1022D00004C0FE010E943B0F2196C336D107C9F707
:0422E000F894FFCFA0
:1022E40000009805800000000500060007000800B3
:1022F4000000000015046B06DE03BC03D0035C047D
:10230400564D4450565F317C315F564D4450560D06
:102314000A00564D4450455F003A323A007C005F53
:10232400564D44504500746F6A5F74656D705F006C
:1023340049206765742D3E006D616E75616C206F78
:102344006E006D616E75616C206F6666006D616E06
:1023540075616C206E6F006D616E75616C006D61EE
:102364006E75616C20006D616E75616C206D7573A6
:1023740074206265205B312E2E345D00746D700014
:10238400666C617368005468617473207768617463
:1023940020696E20454550524F4D206E6F773A00AC
:1023A400436865636B20696E207374617274202DB9
:1023B4003E2000636F6F6C74696D65202D3E2000B4
:1023C40064656C617974696D65202D3E20007261CD
:1023D4006D005468617473207768617420696E209D
:1023E40052414D206E6F773A00636865636B00431A
:1023F4006865636B206E6F77202D3E00636F6F6C92
:1024040074696D6500636F6F6C74696D65206E6FC0
:1024140077202D3E200064656C617974696D6500D8
:1024240064656C617974696D65206E6F77202D3EEB
:1024340020006F6E2F6F66662F6E6F202D20746FD5
:10244400206D616E75616C207377697463682061B7
:102454006C6C2072656C6179006D616E75616C4E97
:10246400202D20746F206D616E75616C20747572FF
:102474006E204F6E206F6E6C79204E206E756D62EB
:1024840065722072656C617900746D704E7878782D
:10249400202D207365742074656D70726574757277
:1024A40065206F6620646F742C204E202D206E757D
:1024B4006D626572206F6620646F742C2078787862
:1024C400202D2074656D70206F6620646F74006623
:1024D4006C617368202D2072656164207365747467
:1024E400696E67732066726F6D20454550524F4D7B
:1024F4000072616D202D207265616420646F7473B5
:102504002066726F6D2052414D00636865636B20D5
:102514002D206368656E6765206F6E2F6F66662079
:1025240072656C617920696E2073746172740063E2
:102534006F6F6C74696D654E202D20736574204E29
:10254400205B312E2E395D736563206F6E2F6F66AD
:10255400662072656C617920696E2073746172748F
:102564002C2030202D2072656164207468697320EA
:1025740074696D650064656C617974696D654E207C
:102584002D20736574204E205B312E2E395D7365CA
:102594006320746F2064656C617920696E20776FA5
:1025A400726B2C2030202D20726561642074686960
:1025B400732074696D65007265736574202D2072D3
:1025C40065736574206D6F64756C65007265736501
:1025D40074006E6F742061207374616E6461726440
:1025E400206D65737361676521007072696E742074
:1025F40068656C7020666F722068656C7000636F2C
:102604006F6C74696D652074696D65206D75737484
:10261400206265205B302E2E395D200064656C617C
:10262400792074696D65206D757374206265205B13
:08263400302E2E395D2000005C
:00000001FF
