:100000000C9463000C948B000C948B000C948B006C
:100010000C948B000C948B000C948B000C948B0034
:100020000C948B000C948B000C948B000C948B0024
:100030000C948B000C948B000C948B000C948B0014
:100040000C9413030C948B000C9430020C940A0251
:100050000C948B000C948B000C948B000C948B00F4
:100060000C948B000C948B000000000025002800ED
:100070002B0000000008000201000003040700003C
:1000800000000000000000000000240027002A00FB
:1000900000000000230026002900040404040404D6
:1000A0000404020202020202030303030303010227
:1000B00004081020408001020408102001020408F6
:1000C0001020830C7B0C11241FBECFEFD8E0DEBFC5
:1000D000CDBF14E0A0E0B1E0E8E3F0E202C005909B
:1000E0000D92A635B107D9F725E0A6E5B4E001C029
:1000F0001D92A634B207E1F710E0C2E6D0E004C0DA
:100100002197FE010E94120FC136D107C9F70E9444
:100110009A060C940F100C940000089580E090E073
:100120000895FC01538D448D252F30E0842F90E0FD
:10013000821B930B541710F0CF96089501970895E2
:10014000FC01918D828D981761F0828DDF01A80FDF
:10015000B11D5D968C91928D9F5F9F73928F90E001
:1001600008958FEF9FEF0895FC01918D828D981770
:1001700031F0828DE80FF11D858D90E008958FEFAD
:100180009FEF0895FC01918D228D892F90E0805C76
:100190009F4F821B91098F739927089589E794E0F7
:1001A0000E94C20021E0892B09F420E0822F0895EB
:1001B000FC01848DDF01A80FB11DA35ABF4F2C9104
:1001C000848D90E001968F739927848FA689B789D3
:1001D0002C93A089B1898C9180648C93938D848DAC
:1001E000981306C00288F389E02D80818F7D80837B
:1001F0000895EF92FF920F931F93CF93DF93EC013B
:1002000081E0888F9B8D8C8D981305C0E889F989D2
:10021000808185FD24C0F62E0B8D10E00F5F1F4FEF
:100220000F731127E02E8C8DE8120CC00FB607FC5F
:10023000FACFE889F989808185FFF5CFCE010E9448
:10024000D800F1CF8B8DFE01E80FF11DE35AFF4F6F
:10025000F0820B8FEA89FB898081806207C0EE897A
:10026000FF896083E889F98980818064808381E0E7
:1002700090E0DF91CF911F910F91FF90EF90089543
:10028000CF93DF93EC01888D8823C9F0EA89FB893D
:10029000808185FD05C0A889B9898C9186FD0FC034
:1002A0000FB607FCF5CF808185FFF2CFA889B98909
:1002B0008C9185FFEDCFCE010E94D800E7CFDF9172
:1002C000CF91089580E090E0892B29F00E94CE0024
:1002D00081110C94000008953FB7F8948091570461
:1002E00090915804A0915904B0915A0426B5A89B46
:1002F00005C02F3F19F00196A11DB11D3FBFBA2FB8
:10030000A92F982F8827820F911DA11DB11DBC0117
:10031000CD0142E0660F771F881F991F4A95D1F7DC
:100320000895CF93DF93CDB7DEB780911D019091F3
:100330001E0104960E942D0E892B79F4E0911D0177
:10034000F0911E018081918190931E0180931D0187
:1003500061E070E004960E944D0EDF91CF91089508
:100360008F929F92AF92BF92CF92DF92EF92FF92C5
:100370006B017C010E946C014B015C01C114D10432
:10038000E104F10401F10E9491010E946C01DC0181
:10039000CB0188199909AA09BB09883E9340A10598
:1003A000B10560F321E0C21AD108E108F10888EE36
:1003B000880E83E0981EA11CB11CC114D104E10475
:1003C000F10419F7DBCFFF90EF90DF90CF90BF9053
:1003D000AF909F908F900895CF92DF92EF92FF920F
:1003E00097FD01966C01D594C7940D2C000CEE0876
:1003F000FF08C701B6010E94B001C701B6010E9403
:10040000B001FF90EF90DF90CF9008950C94AB0E69
:100410000C94A30E1F920F920FB60F9211242F93DC
:100420003F934F935F936F937F938F939F93AF937C
:10043000BF93EF93FF9389E794E00E94D800FF9168
:10044000EF91BF91AF919F918F917F916F915F914C
:100450004F913F912F910F900FBE0F901F901895C5
:100460001F920F920FB60F9211242F938F939F9389
:10047000EF93FF93E0918904F0918A048081E091E9
:100480008F04F091900482FD12C0908180919204BB
:100490008F5F8F7320919304821751F0E091920443
:1004A000F0E0E758FB4F958F8093920401C0808164
:1004B000FF91EF919F918F912F910F900FBE0F9011
:1004C0001F90189590E0FC01EE58FF4F3491FC010D
:1004D000E255FF4F2491FC01E656FF4FE491EE23D5
:1004E00009F43BC0332339F1333091F038F4313023
:1004F000A9F0323001F584B58F7D12C0373091F00C
:100500003830A1F03430B9F4809180008F7D03C081
:10051000809180008F77809380000DC084B58F77A5
:1005200084BD09C08091B0008F7703C08091B00076
:100530008F7D8093B000F0E0EE0FFF1FE859FF4F72
:10054000A591B4918FB7F894EC91611103C02095F7
:100550002E2301C02E2B2C938FBF08951F93CF9372
:10056000DF93162FD42FC22F882311F060E001C033
:1005700061E085E00E946202112311F060E001C099
:1005800061E086E00E946202DD2311F060E001C0BC
:1005900061E087E00E946202CC2311F060E001C0BC
:1005A00061E088E0DF91CF911F910C946202CF93BC
:1005B000DF9390E0FC01E255FF4F2491FC01E656E9
:1005C000FF4F8491882361F190E0880F991FFC010F
:1005D000EA57FF4FC591D491FC01E859FF4FA5910F
:1005E000B491611109C09FB7F89488812095822346
:1005F0008883EC912E230BC0623061F49FB7F8948E
:100600003881822F809583238883EC912E2B2C9325
:100610009FBF06C08FB7F894E8812E2B28838FBF29
:10062000DF91CF9108951F920F920FB60F92112470
:100630002F933F938F939F93AF93BF9380917504B4
:1006400090917604A0917704B0917804309156048B
:1006500023E0230F2D3720F40196A11DB11D05C005
:1006600026E8230F0296A11DB11D20935604809306
:10067000750490937604A0937704B09378048091E6
:10068000570490915804A0915904B0915A040196CE
:10069000A11DB11D8093570490935804A093590451
:1006A000B0935A04BF91AF919F918F913F912F9139
:1006B0000F900FBE0F901F9018958EBD00000DB4C7
:1006C00007FEFDCF8EB50895CF92DF92EF92FF9295
:1006D0000F931F93CF93DF936C017A018B01C0E0DE
:1006E000D0E0CE15DF0589F0D8016D918D01D601DE
:1006F000ED91FC910190F081E02DC6010995892BC7
:1007000011F47E0102C02196ECCFC701DF91CF9199
:100710001F910F91FF90EF90DF90CF900895009779
:1007200069F0FC0101900020E9F73197AF01481B07
:10073000590BBC0189E794E00C94640380E090E0DD
:1007400008950E94E20F0F931F93CF93DF93EC0164
:1007500088819981009729F02A813B8126173707E4
:1007600088F48B016F5F7F4F0E94180F009761F034
:10077000998388831B830A832C813D81232B11F469
:10078000FC01108281E001C080E0DF91CF911F91D8
:100790000F910895EF92FF920F931F93CF93DF93E2
:1007A0001F92CDB7DEB7082F162F86E1E82E85E021
:1007B000F82E60E0F701808949830E94620285E09B
:1007C0000E945D03802F0E945D03812F0E945D03C4
:1007D0004981842F0E945D0361E0F70180890F90B9
:1007E000DF91CF911F910F91FF90EF900C946202D7
:1007F000CF93DF93D82F482F60EE8FE00E94CA037B
:1008000060E0809126050E94620283E00E945D0301
:100810008FE00E945D0380E00E945D03C82F61E0CD
:10082000809126050E946202C07E81E0CD1301C046
:1008300080E0DF91CF9108950F931F93CF93DF93C3
:10084000082F162FC6E1D5E060E088890E94620279
:1008500082E00E945D03802F0E945D03812F0E9431
:100860005D0361E08889DF91CF911F910F910C9416
:1008700062021F93CF93DF9300D000D0CDB7DEB7D5
:10088000182F613031F41C821B8288E08A83198220
:1008900004C019821A821C821B8260E080912605A6
:1008A0000E94620282E00E945D03812F0E945D032C
:1008B00089810E945D038A810E945D038B810E9471
:1008C0005D038C810E945D0361E0809126050F909D
:1008D0000F900F900F90DF91CF911F910C946202B7
:1008E0002FB7F8948091750490917604A0917704C5
:1008F000B09178042FBF8093810490938204A093D9
:100900008304B0938404E0917904F0917A04028422
:10091000F385E02D89E794E0099597FF26C02FB76E
:10092000F8948091750490917604A0917704B09129
:1009300078042FBF40918104509182046091830418
:1009400070918404841B950BA60BB70B40917D041A
:1009500050917E0460917F04709180048417950704
:10096000A607B70780F28FEF9FEF089540913905F2
:1009700050913A0541155105D1F08091350590917E
:1009800036054150510950933A0540933905BC0151
:100990006F5F7F4F0E940010E0913505F0913605A2
:1009A0008091390590913A05E80FF91F108208955A
:1009B0000C948F03CF93DF93EBE3F5E044815581F3
:1009C0006081718189E794E00E946403EC0182E513
:1009D00094E00E948F038C0F9D1FDF91CF910895AB
:1009E000CF93DF930E948F03EC0182E594E00E9495
:1009F0008F038C0F9D1FDF91CF9108958F929F924F
:100A0000AF92BF920F931F93CF93DF93CDB7DEB713
:100A1000A1970FB6F894DEBF0FBECDBF19A242302A
:100A200008F44AE08E010F5D1F4F842E912CA12CFB
:100A3000B12CA50194010E94F00EE62FB901CA0164
:100A400001501109EA3014F4E05D01C0E95CD801FD
:100A5000EC93232B242B252B61F7C8010E948F03D5
:100A6000A1960FB6F894DEBF0FBECDBFDF91CF9138
:100A70001F910F91BF90AF909F908F900895CF934B
:100A8000DF93682F70E080E090E04AE00E94FE046F
:100A9000EC0182E594E00E948F038C0F9D1FDF9193
:100AA000CF910895CF92DF92EF92FF92CF93DF9391
:100AB0006C01990FEE08FF08F7FE1AC0E091790467
:100AC000F0917A040190F081E02D6DE289E794E0E5
:100AD0000995EC0166277727CB016C197D098E09F2
:100AE0009F094AE00E94FE047C01EC0EFD1E06C038
:100AF0004AE0C701B6010E94FE047C0182E594E051
:100B00000E948F038E0D9F1DDF91CF91FF90EF907C
:100B1000DF90CF900895FC0124813581621773071F
:100B200020F480819181009729F41092410581E49D
:100B300095E00895860F971F0895FC012481358163
:100B4000232B31F421E061157105A1F0FB0108C0F0
:100B5000FC01808191816115710531F421E0FC0176
:100B60008081882339F005C00E94F00F21E0892B95
:100B700009F020E0822F0895EF92FF920F931F93C8
:100B8000CF93DF93FC01248135816115710511F448
:100B900080E019C041155105A9F07B01EC018A01E3
:100BA000020F131FB8010E94A303882389F3288131
:100BB00039818C819D81B701820F931F0E94F90FAB
:100BC0001D830C8381E0DF91CF911F910F91FF90E6
:100BD000EF900895CF93DF93EC018881998100977E
:100BE00011F00E94950D198218821D821C821B82B1
:100BF0001A82DF91CF910895EF92FF920F931F9386
:100C0000CF93DF93EC017B018A01BA010E94A30319
:100C1000811104C0CE010E94EA0507C01D830C8328
:100C2000B701888199810E94F90FCE01DF91CF91A0
:100C30001F910F91FF90EF900895CF93DF93EC01F8
:100C40006115710559F0FB0101900020E9F731971A
:100C5000AF01461B570B0E94FC0502C00E94EA052B
:100C6000CE01DF91CF910895CF93DF93EC01FB018B
:100C70008617970761F0608171816115710529F010
:100C8000448155810E94FC0502C00E94EA05CE0104
:100C9000DF91CF910895FC01808191810C94950D95
:100CA000FC01118210821382128215821482611556
:100CB000710551F0FB0101900020E9F73197AF0178
:100CC000461B570B0C94FC050895EF92FF920F936F
:100CD0001F93CF93DF938C017B0164E574E00E9446
:100CE000500680913F05909140050097D9F0E701AB
:100CF0008E159F0508F4EC01E0913B05F0913C0551
:100D0000EC0FFD1FF080108260913B0570913C0557
:100D1000C8010E941D0680913B0590913C05C80FBB
:100D2000D91FF882C801DF91CF911F910F91FF90D9
:100D3000EF900895CF93DF93CDB7DEB760970FB6EE
:100D4000F894DEBF0FBECDBF789484B5826084BDB9
:100D500084B5816084BD85B5826085BD85B58160BF
:100D600085BD80916E00816080936E00109281003D
:100D700080918100826080938100809181008160F8
:100D800080938100809180008160809380008091B9
:100D9000B10084608093B1008091B0008160809345
:100DA000B00080917A00846080937A0080917A000C
:100DB000826080937A0080917A00816080937A00CB
:100DC00080917A00806880937A001092C10060E080
:100DD00080E00E94D702E0918904F0918A0482E0C9
:100DE0008083E0918504F09186041082E09187046D
:100DF000F091880480E1808310929104E0918D0449
:100E0000F0918E0486E08083E0918B04F0918C0455
:100E1000808180618083E0918B04F0918C048081DB
:100E200088608083E0918B04F0918C0480818068DD
:100E30008083E0918B04F0918C0480818F7D80838E
:100E40001FB7F89480915B04811127C0E4EAF0E0B9
:100E50008491E8EBF0E09491E82FF0E0EE0FFF1FB3
:100E6000EA57FF4FA591B491EC91E92321F461E099
:100E70008AE00E94620261E08AE00E94D7028CB59B
:100E800080618CBD8CB580648CBD61E08DE00E947A
:100E9000D70261E08BE00E94D70280915B048F5FF4
:100EA00080935B041FBF60E0809126050E94620270
:100EB00080EC0E945D0361E0809126050E94620241
:100EC0006AE070E080E090E00E94B00180E80E945B
:100ED000F803811157C060E08AE20E941C0460EFB1
:100EE00089E20E941C0466E888E20E941C0461E01A
:100EF00080E20E94390461E084E20E94390461E0EA
:100F000080E00E94390460E084E00E94390461E0DE
:100F100088E00E94390460E080E10E94390461E0C9
:100F200084E10E94390460E088E10E94390410E302
:100F300060E0812F0E941C0460E080E1810F0E942C
:100F40001C0460E080E2810F0E941C041F5F1E33BE
:100F500079F760E080E60E941C0460E080E70E9470
:100F60001C0463E08BE20E941C0444E064E680E61B
:100F70000E94CA0340E060E680E70E94CA0380E066
:100F80000E94F80361E08DE00E94D70260E089E0F2
:100F90000E94D70281E080935C0410915C041530BC
:100FA00070F4E12FF0E0EE0FFF1FEB5DFE4F61E00C
:100FB00080810E94D7021F5F10935C04EECF8BE00C
:100FC00090E00E940802B8EEEB2EB3E0FB2E282F33
:100FD0002E9DC0012F9D900D112490935F0480934E
:100FE0005E0489E090E00E940802182F813021F011
:100FF00081E080935C0428C021E041E061E081E071
:101000000E94AE028AE090E00E940802E82FEE9D66
:10101000C001EF9D900D11240E94EC0110935C041F
:1010200010915C04153020F7E12FF0E0EE0FFF1F68
:10103000EB5DFE4F61E080810E94620288EE93E0EA
:101040000E94EC011F5FEACFF0905C04F8E0FF150E
:1010500088F00F2D10E0C8010E940802000F111F38
:10106000F801EF59FB4F90E091838083F394F09265
:101070005C04EACF40E4D42E8E010F5F1F4F58EE80
:10108000E52E53E0F52E64E6C62E7EEFB72EAA2499
:10109000AA94D0927C0080917A00806480937A0038
:1010A00080917A0086FDFCCF809078008091790055
:1010B000912C982A909274048092730461E471E0F8
:1010C0008BE395E00E941D064AE0B801C4010E942E
:1010D0006E0EF80101900020E9F73197AF01401B37
:1010E000510BB8018BE395E00E94BC050E94DA0425
:1010F00080907304909074048091630490916404D0
:10110000881699064CF080916004811105C020E09A
:1011100040E060E00E94AE02809165049091660418
:10112000881699068CF0809167049091680488165F
:10113000990654F480916004811106C020E040E0DB
:1011400060E081E00E94AE028091690490916A049F
:10115000881699068CF080916B0490916C04881627
:10116000990654F480916004811106C020E040E0AB
:1011700061E081E00E94AE0280916D0490916E0466
:10118000881699068CF080916F04909170048816EF
:10119000990654F480916004811106C020E041E07A
:1011A00061E081E00E94AE0280917104909172042E
:1011B0008816990654F480916004811106C021E0DC
:1011C00041E061E081E00E94AE0289E794E00E9484
:1011D000C200181619060CF49DC080913905909133
:1011E0003A05892B09F096C08CC081E080935D049C
:1011F00065E070E0C8010E94650664E072E0C80125
:101200000E949D05982EC8010E944B069110B8C2FD
:1012100068E070E0C8010E94650667E172E0C801FD
:101220000E949D05982EC8010E944B069110C3C2D2
:1012300069E070E0C8010E94650661E372E0C801E0
:101240000E949D05982EC8010E944B069110F8C27D
:1012500064E070E0C8010E94650664E174E0C801C2
:101260000E949D05982EC8010E944B06992039F1D5
:101270008DE492E00E94F00484E792E00E94F00482
:1012800084EA92E00E94F0048AEE92E00E94F00468
:101290008CE093E00E94F00485E293E00E94F00469
:1012A0008AE493E00E94F00480E993E00E94F00455
:1012B00082ED93E00E94F00481E080935D0465E09C
:1012C00070E0C8010E94650667EE73E0C8010E94E5
:1012D0009D05982EC8010E944B06992031F0E0E050
:1012E000F0E0099581E080935D0480915D048111B7
:1012F00008C08DEE93E00E94F00485E094E00E9427
:10130000F00480915E0490915F040E94EC010E94C1
:101310006201BFCE64E574E0CE0109960E945006DA
:101320000E94700497FD0AC089831A8241E050E050
:10133000B801CE0109960E94BC05F2CF1A8219822B
:101340001C821B821E821D8265E375E0C8010E941B
:1013500034068AE08F87188A41E050E0BE01615F61
:101360007F4FC8010E94BC05811103C0C8010E94C3
:10137000EA054D855E8569857A85C8010E94BC05B0
:10138000811103C0C8010E94EA05B80185E395E018
:101390000E943406C8010E944B06CE0109960E94A5
:1013A0004B0664E574E08BE395E00E941D0660E067
:1013B00070E085E395E00E948B05FC0180818A3016
:1013C00099F18091390590913A05892B69F160E096
:1013D00070E085E395E00E948B05FC0190801A8205
:1013E00019821C821B821E821D826BE375E0C8017C
:1013F0000E94340699861A8641E050E0BE01675F7C
:101400007F4FC8010E94BC05811103C0C8010E9422
:10141000EA05B8018BE395E00E943406C8010E94FA
:101420004B060E94B604C3CF60E070E085E395E010
:101430000E948B05FC0180818A3011F40E94B60461
:101440008BE491E00E94D8040E94DA0410925D04BB
:1014500062E070E0C8010E9465066AE571E0C801BB
:101460000E949D05982EC8010E944B06992079F094
:10147000A092600483E591E00E94F00421E041E045
:1014800061E081E00E94AE0281E080935D0463E050
:1014900070E0C8010E94650664E671E0C8010E9420
:1014A0009D05982EC8010E944B06992079F0B092B4
:1014B00060048DE591E00E94F00420E040E060E0EF
:1014C00080E00E94AE0281E080935D0462E070E003
:1014D000C8010E9465066FE671E0C8010E949D0583
:1014E000982EC8010E944B06992049F01092600482
:1014F00088E691E00E94F00481E080935D0466E05C
:1015000070E0C8010E94650662E771E0C8010E94B0
:101510009D05982EC8010E944B069920F1F166E0C6
:1015200070E08BE395E00E948B05FC01808190EDDB
:10153000980F909360048153843048F589E791E0D7
:101540000E94D804809160040E943F0581E080934E
:101550005C0490905C04F4E0F915A8F0209160041C
:10156000892D90E0880F991FFC01EB5DFE4F9212D0
:1015700002C060E001C061E080810E946202939439
:1015800090925C04E6CF81E080935D0406C01092E7
:10159000600481E891E00E94F00463E070E0C8011B
:1015A0000E94650667E971E0C8010E949D05982EBA
:1015B000C8010E944B069920B9F164E070E08BE30A
:1015C00095E00E948B05FC01808180538C9D902CBE
:1015D000112465E070E08BE395E00E948B05FC012F
:1015E0008081880F8056882E880C880C880E66E0D3
:1015F00070E08BE395E00E948B05FC0180818053B5
:10160000980E980C63E070E08BE395E00E948B05E8
:10161000FC018081082E000C990B692DC0970E9457
:10162000060281E080935D0465E070E0C8010E94DD
:1016300065066BE971E0C8010E949D05982EC801FE
:101640000E944B06992009F457C081EA91E00E945C
:10165000F00486E990E00E94EC0181E080935C0454
:1016600080915C048930F8F485E491E00E94D8040C
:1016700060915C0470E080E090E04AE00E94FE042B
:1016800089E491E00E94D80480915C0490E00E947B
:1016900008020E943F0586E990E00E94EC018091DB
:1016A0005C048F5FDBCF8BEB91E00E94D80489E074
:1016B00090E00E9408020E943F0586E990E00E94A7
:1016C000EC018EEC91E00E94D8048AE090E00E9448
:1016D00008020E943F0586E990E00E94EC018BED34
:1016E00091E00E94D8048BE090E00E9408020E94E2
:1016F0003F0581E080935D0463E070E0C8010E94D3
:10170000650669EE71E0C8010E949D05982EC8012A
:101710000E944B06992009F46BCD8DEE91E00E945A
:10172000F00486E990E00E94EC0181E080935C0483
:1017300080915C04893008F058CD85E491E00E94E6
:10174000D80460915C0470E080E090E04AE00E9480
:10175000FE0484E192E00E94D804E0915C04F0E091
:10176000EE0FFF1FEF59FB4F808191810E945205C0
:1017700086E990E00E94EC0180915C048F5FD6CFF7
:1017800089E090E00E940802882311F060E001C027
:1017900061E089E090E00E9406028AE092E00E9407
:1017A000D80489E090E00E9408020E943F0581E091
:1017B00080935D042DCD68E070E08BE395E00E949E
:1017C0008B05FC018081803351F480E292E00E941D
:1017D000D8048AE090E00E9408020E943F0568E079
:1017E00070E08BE395E00E948B05FC0180818133E2
:1017F0000CF477C068E070E08BE395E00E948B0505
:10180000FC0180818A330CF06CC068E070E08BE3EF
:1018100095E00E948B05FC01608160538AE090E0B6
:101820000E94060280E292E00E94D8048AE090E0E2
:101830000E9408020E943F0581E080935D04F8CC7D
:1018400069E070E08BE395E00E948B05FC018081EC
:10185000803351F48BE392E00E94D80480915E04BF
:1018600090915F040E94520569E070E08BE395E07F
:101870000E948B05FC0180818133C4F169E070E036
:101880008BE395E00E948B05FC0180818A3374F51F
:1018900069E070E08BE395E00E948B05FC016081BC
:1018A00060538BE090E00E9406028BE090E00E9483
:1018B0000802F82FFE9DC001FF9D900D112490930A
:1018C0005F0480935E048BE392E00E94D8048BE077
:1018D00090E00E9408020E943F0581E080935D0431
:1018E000B7CC89E194E00E94F004A6CF87E394E0AE
:1018F0000E94F004F2CF85E395E00E944B068BE353
:1019000095E00C944B0610927C0410927B0488EEB8
:1019100093E0A0E0B0E080937D0490937E04A093D8
:101920007F04B093800483E391E090937A048093E2
:10193000790485EC90E0909386048093850484EC90
:1019400090E0909388048093870480EC90E09093DB
:101950008A048093890481EC90E090938C048093B6
:101960008B0482EC90E090938E0480938D0486EC3F
:1019700090E09093900480938F04109292041092C0
:101980009304109294041092950464E574E08BE340
:1019900095E00E94500664E574E085E395E00E94BE
:1019A000500660E084E00E94D702E2EBF0E0E491B0
:1019B000E0932705EEE9F0E0E491F0E0EE0FFF1F81
:1019C000E057FF4F859194919093290580932805C6
:1019D000109232051092340510923305E2E3F5E0DF
:1019E000129285E0EA32F807D9F78AE0809326055B
:1019F00061E00E94D70261E0809126050C946202AA
:101A0000CF93DF938230910510F482E090E0E09173
:101A10004405F091450520E030E0C0E0D0E030978B
:101A200011F14081518148175907C0F048175907F3
:101A300061F482819381209719F09B838A832BC064
:101A4000909345058093440526C02115310519F072
:101A50004217530718F49A01BE01DF01EF0102801B
:101A6000F381E02DDCCF2115310509F1281B390B5D
:101A70002430310590F412968D919C911397611545
:101A8000710521F0FB019383828304C09093450587
:101A900080934405FD01329644C0FD01E20FF31F1F
:101AA00081939193225031092D933C933AC0209118
:101AB000420530914305232B41F4209121013091BF
:101AC0002201309343052093420520911F0130915C
:101AD00020012115310541F42DB73EB74091230176
:101AE00050912401241B350BE0914205F0914305F0
:101AF000E217F307A0F42E1B3F0B2817390778F0E5
:101B0000AC014E5F5F4F2417350748F04E0F5F1F43
:101B100050934305409342058193919302C0E0E0C6
:101B2000F0E0CF01DF91CF9108950F931F93CF93F2
:101B3000DF93009709F48CC0FC0132971382128264
:101B400000914405109145050115110581F420818E
:101B50003181820F931F2091420530914305281750
:101B6000390779F5F0934305E093420571C0D80138
:101B700040E050E0AE17BF0750F412962D913C9113
:101B80001397AD012115310509F1D901F3CF9D015D
:101B9000DA013383228360817181860F971F821758
:101BA000930769F4EC0128813981260F371F2E5FD6
:101BB0003F4F318320838A819B8193838283452B8E
:101BC00029F4F0934505E093440542C01396FC9335
:101BD000EE931297ED01499159919E01240F351F03
:101BE000E217F30771F480819181840F951F0296AB
:101BF00011969C938E938281938113969C938E93DE
:101C00001297E0E0F0E0D80112968D919C91139725
:101C1000009719F0F8018C01F6CF8D919C919801F5
:101C20002E5F3F4F820F931F209142053091430555
:101C30002817390769F4309729F410924505109256
:101C4000440502C01382128210934305009342059B
:101C5000DF91CF911F910F910895DC012D923D925C
:101C60004D925D926D927D928D929D92AD92BD92BC
:101C7000CD92DD92ED92FD920D931D93CD93DD9368
:101C8000FF91EF918DB78D938EB78D938FB78D9315
:101C9000ED93FD93882799270994DC01CB018130CE
:101CA0009105811D2D903D904D905D906D907D90A2
:101CB0008D909D90AD90BD90CD90DD90ED90FD907C
:101CC0000D911D91CD91DD91ED91FD910D90F894C7
:101CD000FEBF0FBEEDBFED91FD910994BB274A30C9
:101CE00031F4992322F4BDE2909581959F4F0C9495
:101CF0007A0EBB27FB015527AA27880F991FAA1F19
:101D0000A41710F0A41B83955051B9F7A05DAA3316
:101D100008F0A95DA193009779F7B111B1931192E1
:101D2000CB010C94930EDC01FC01672F719177239A
:101D3000E1F7329704C07C916D9370836291AE1786
:101D4000BF07C8F30895F999FECF92BD81BDF89AF7
:101D5000992780B50895262FF999FECF1FBA92BD15
:101D600081BD20BD0FB6F894FA9AF99A0FBE01967C
:101D700008952F923F924F925F926F927F928F922F
:101D80009F92AF92BF92CF92DF92EF92FF920F930A
:101D90001F93CF93DF93CDB7DEB7CA1BDB0B0FB614
:101DA000F894DEBF0FBECDBF09942A8839884888D1
:101DB0005F846E847D848C849B84AA84B984C88467
:101DC000DF80EE80FD800C811B81AA81B981CE0F5E
:101DD000D11D0FB6F894DEBF0FBECDBFED01089543
:101DE000A1E21A2EAA1BBB1BFD010DC0AA1FBB1F1F
:101DF000EE1FFF1FA217B307E407F50720F0A21B91
:101E0000B30BE40BF50B661F771F881F991F1A94FD
:101E100069F760957095809590959B01AC01BD0127
:101E2000CF010895EE0FFF1F0590F491E02D099466
:101E3000A0E0B0E0EEE1FFE00C94BD0EEC010097F5
:101E400021F4CB010E94000DB8C0FC01E60FF71F82
:101E50009C0122503109E217F30708F4ACC0D90104
:101E60000D911C91119706171707B0F00530110559
:101E700008F49FC0C80104978617970708F499C013
:101E800002501109061B170B019311936D937C935C
:101E9000CF010E94950D8DC05B01A01AB10A4C01C3
:101EA000800E911EA0914405B091450540E050E0A0
:101EB000E12CF12C109709F44AC0A815B905D1F509
:101EC0006D907C901197630182E0C80ED11CCA14FA
:101ED000DB0480F1A3014A195B096A0182E0C80EA4
:101EE000D11C1296BC9012971396AC91B5E0CB160C
:101EF000D10440F0B282A38351834083D9016D9312
:101F00007C930AC00E5F1F4FC301800F911FF90120
:101F100091838083EB2DFA2FE114F10431F0D70186
:101F20001396FC93EE93129744C0F0934505E0930B
:101F300044053FC08D919C9111974817590708F4AB
:101F4000AC017D0112960D90BC91A02DB3CF809174
:101F500042059091430588159905E1F44617570706
:101F6000C8F480911F0190912001009741F48DB732
:101F70009EB74091230150912401841B950BE817D3
:101F8000F907C8F4F0934305E0934205F901718322
:101F900060830FC0CB010E94000D7C01009759F0B7
:101FA000A801BE010E94E70FCE010E94950DC70156
:101FB00004C0CE0102C080E090E0CDB7DEB7EEE015
:101FC0000C94D90E81E090E0F8940C940F10FB0172
:101FD000DC0102C001900D9241505040D8F70895A5
:101FE000FB01DC018D91019080190110D9F3990B4F
:101FF0000895FB01DC0101900D920020E1F70895A6
:10200000FB01DC014150504048F001900D9200204E
:10201000C9F701C01D9241505040E0F7089510E00B
:10202000C2E6D0E004C0FE010E94120F2196C33622
:08203000D107C9F7F894FFCFB6
:102038000001000100000000000000000000000096
:102048000000000000000000000000000000010087
:102058000046058000000005000600070008000093
:10206800000000F900640391004001C200A000B420
:1020780000746F6A5F74656D705F004920676574EE
:102088002D3E006D616E75616C206F6E006D616E26
:1020980075616C206F6666006D616E75616C206E8F
:1020A8006F006D616E75616C006D616E75616C209D
:1020B800006D616E75616C206D75737420626520AA
:1020C8005B312E2E345D00746D7000666C61736830
:1020D800005468617473207768617420696E2045C4
:1020E8004550524F4D206E6F773A00436865636BD9
:1020F80020696E207374617274202D3E2000636F16
:102108006F6C74696D65202D3E200064656C617983
:1021180074696D65202D3E200072616D0054686100
:102128007473207768617420696E2052414D206E67
:102138006F773A00636865636B00436865636B207B
:102148006E6F77202D3E00636F6F6C74696D65004C
:10215800636F6F6C74696D65206E6F77202D3E20FC
:102168000064656C617974696D650064656C61799A
:1021780074696D65206E6F77202D3E20006F6E2F7D
:102188006F66662F6E6F202D20746F206D616E75DF
:10219800616C2073776974636820616C6C20726568
:1021A8006C6179006D616E75616C4E202D20746FC5
:1021B800206D616E75616C207475726E204F6E2093
:1021C8006F6E6C79204E206E756D62657220726537
:1021D8006C617900746D704E787878202D20736565
:1021E800742074656D70726574757265206F6620F1
:1021F800646F742C204E202D206E756D62657220E0
:102208006F6620646F742C20787878202D20746590
:102218006D70206F6620646F7400666C617368204F
:102228002D20726561642073657474696E6773200C
:1022380066726F6D20454550524F4D0072616D209A
:102248002D207265616420646F74732066726F6DEF
:102258002052414D00636865636B202D20636865DB
:102268006E6765206F6E2F6F66662072656C617988
:1022780020696E20737461727400636F6F6C746987
:102288006D654E202D20736574204E205B312E2EF7
:10229800395D736563206F6E2F6F66662072656C9B
:1022A800617920696E2073746172742C2030202D3E
:1022B800207265616420746869732074696D6500B3
:1022C80064656C617974696D654E202D2073657441
:1022D800204E205B312E2E395D73656320746F208C
:1022E80064656C617920696E20776F726B2C203081
:1022F800202D207265616420746869732074696D8B
:1023080065007265736574202D207265736574208D
:102318006D6F64756C65007265736574006E6F74BB
:102328002061207374616E64617264206D657373DB
:1023380061676521007072696E742068656C702031
:10234800666F722068656C7000636F6F6C74696D7E
:10235800652074696D65206D757374206265205BF6
:10236800302E2E395D200064656C61792074696DAA
:1023780065206D757374206265205B302E2E395D83
:0623880020000D0A000018
:107800000C94343C0C94513C0C94513C0C94513CE1
:107810000C94513C0C94513C0C94513C0C94513CB4
:107820000C94513C0C94513C0C94513C0C94513CA4
:107830000C94513C0C94513C0C94513C0C94513C94
:107840000C94513C0C94513C0C94513C0C94513C84
:107850000C94513C0C94513C0C94513C0C94513C74
:107860000C94513C0C94513C11241FBECFEFD8E036
:10787000DEBFCDBF11E0A0E0B1E0ECE9FFE702C060
:1078800005900D92A230B107D9F712E0A2E0B1E065
:1078900001C01D92AD30B107E1F70E942D3D0C945F
:1078A000CC3F0C94003C982F959595959595959582
:1078B000905D8F708A307CF0282F295A8091C0000B
:1078C00085FFFCCF9093C6008091C00085FFFCCF60
:1078D0002093C6000895282F205DF0CF982F809127
:1078E000C00085FFFCCF9093C6000895EF92FF92F1
:1078F0000F931F93EE24FF2487018091C00087FD22
:1079000017C00894E11CF11C011D111D81E4E8164B
:1079100082E4F8068FE0080780E0180770F3E09132
:107920000401F091050109958091C00087FFE9CF1E
:107930008091C6001F910F91FF90EF9008950E94D3
:10794000763C982F8091C00085FFFCCF9093C600B5
:1079500091362CF490330CF09053892F089597555D
:10796000892F08951F930E949F3C182F0E949F3CCF
:107970001295107F810F1F9108951F93182F882350
:1079800021F00E94763C1150E1F71F9108951F935A
:10799000182F0E94763C803249F0809103018F5F5E
:1079A000809303018530C1F01F9108958091C0003C
:1079B00085FFFCCF84E18093C6008091C00085FFE5
:1079C000FCCF1093C6008091C00085FFFCCF80E102
:1079D0008093C6001F910895E0910401F091050184
:1079E00009951F9108950E94763C803241F0809164
:1079F00003018F5F80930301853081F008958091AA
:107A0000C00085FFFCCF84E18093C6008091C00058
:107A100085FFFCCF80E18093C6000895E0910401CA
:107A2000F09105010995089540E951E08823A1F0FE
:107A30002D9A28EE33E0FA013197F1F721503040CA
:107A4000D1F72D9828EE33E0FA013197F1F7215064
:107A50003040D1F7815061F708953F924F925F9285
:107A60006F927F928F929F92AF92BF92CF92DF924E
:107A7000EF92FF920F931F93CF93DF93000080E16B
:107A80008093C4001092C50088E18093C10086E015
:107A90008093C2005098589A259A81E00E94143D24
:107AA00024E1F22E9EE1E92E85E9D82E0FE0C02ECA
:107AB00010E1B12EAA24A394B1E49B2EA6E58A2E50
:107AC000F2E57F2EE0E26E2E79E4572E63E5462E36
:107AD00050E5352E0E94763C8033B1F18133B9F107
:107AE000803409F46FC0813409F476C0823409F41B
:107AF00085C0853409F488C0803531F1823521F1A3
:107B0000813511F1853509F485C0863509F48DC0BC
:107B1000843609F496C0843709F403C1853709F423
:107B200072C1863709F466C0809103018F5F80932C
:107B30000301853079F6E0910401F0910501099582
:107B40000E94763C803351F60E94F33CC3CF0E94E2
:107B5000763C803249F78091C00085FFFCCFF092DF
:107B6000C6008091C00085FFFCCF9092C600809136
:107B7000C00085FFFCCF8092C6008091C00085FFC9
:107B8000FCCF7092C6008091C00085FFFCCF609250
:107B9000C6008091C00085FFFCCF5092C600809146
:107BA000C00085FFFCCF4092C6008091C00085FFD9
:107BB000FCCF3092C6008091C00085FFFCCFB09210
:107BC000C60088CF0E94763C863808F4BDCF0E945C
:107BD000763C0E94F33C7ECF0E94763C803809F4CC
:107BE0009CC0813809F40BC1823809F43CC1883942
:107BF00009F48FC080E00E94C73C6CCF84E10E94F2
:107C0000BD3C0E94F33C66CF85E00E94BD3C0E94D3
:107C1000F33C60CF0E94763C809306010E94763C44
:107C2000809307010E94F33C55CF0E94763C80333D
:107C300009F41DC183E00E94BD3C80E00E94C73C66
:107C400049CF0E94763C809309020E94763C809343
:107C5000080280910C028E7F80930C020E94763C79
:107C6000853409F415C18091080290910902892B8D
:107C700089F000E010E00E94763CF801E85FFE4FDA
:107C800080830F5F1F4F80910802909109020817AF
:107C9000190788F30E94763C803209F045CF809125
:107CA0000C0280FF01C16091060170910701660F0F
:107CB000771F7093070160930601A0910802B091AD
:107CC00009021097C9F0E8E0F1E09B01AD014E0F09
:107CD0005F1FF999FECF32BD21BD819180BDFA9A17
:107CE000F99A2F5F3F4FE417F50799F76A0F7B1F4B
:107CF00070930701609306018091C00085FFFCCF5F
:107D0000F092C6008091C00085FFFCCFB092C60003
:107D1000E1CE83E00E94C73CDDCE82E00E94C73CFA
:107D2000D9CE0E94763C809309020E94763C8093D3
:107D300008028091060190910701880F991F909386
:107D40000701809306010E94763C853409F4A6C0A1
:107D500080910C028E7F80930C020E94763C8032D0
:107D600009F0B8CE8091C00085FFFCCFF092C6002C
:107D7000609108027091090261157105B9F140E046
:107D800050E080910C02A82FA170B82FB27011C0E2
:107D9000BB2309F45CC0E0910601F0910701319624
:107DA000F0930701E09306014F5F5F4F46175707B7
:107DB000E8F4AA2369F3F999FECF209106013091E6
:107DC000070132BD21BDF89A90B58091C00085FFB2
:107DD000FCCF9093C6002F5F3F4F30930701209355
:107DE00006014F5F5F4F4617570718F38091C00099
:107DF00085FDE5CE8091C00085FFF8CFE0CE81E023
:107E00000E94C73C67CE0E94763C803209F08CCE3F
:107E10008091C00085FFFCCFF092C6008091C00029
:107E200085FFFCCFE092C6008091C00085FFFCCFAB
:107E3000D092C6008091C00085FFFCCFC092C600E2
:107E40008091C00085FFFCCFB092C60043CEE09188
:107E50000601F091070194918091C00085FFFCCF4D
:107E60009093C6009CCF80E10E94C73C33CE0E9415
:107E7000763C0E94763C182F0E94763C112309F430
:107E800083C0113009F484C08FE00E94C73C22CE29
:107E900080910C02816080930C02E5CE80910C02EF
:107EA000816080930C0259CF809107018823880F4D
:107EB000880B8A2180930B02809106019091070123
:107EC000880F991F90930701809306018091080203
:107ED00080FF09C080910802909109020196909359
:107EE000090280930802F894F999FECF1127E091D6
:107EF0000601F0910701C8E0D1E08091080290915D
:107F00000902103091F40091570001700130D9F34B
:107F100003E000935700E89500915700017001308D
:107F2000D9F301E100935700E89509901990009169
:107F3000570001700130D9F301E000935700E89534
:107F40001395103498F011270091570001700130FB
:107F5000D9F305E000935700E895009157000170B0
:107F60000130D9F301E100935700E895329602976A
:107F700009F0C7CF103011F00296E5CF112480919F
:107F8000C00085FFB9CEBCCE8EE10E94C73CA2CD19
:0C7F900085E90E94C73C9ECDF894FFCF0D
:027F9C00800063
:040000030000780081
:00000001FF